{
  "_format": "hh-sol-artifact-1",
  "contractName": "CelebrityFanMessages",
  "sourceName": "contracts/CelebrityFanMessages.sol",
  "abi": [
    {
      "anonymous": false,
      "inputs": [
        {
          "indexed": true,
          "internalType": "address",
          "name": "sender",
          "type": "address"
        },
        {
          "indexed": false,
          "internalType": "string",
          "name": "message",
          "type": "string"
        },
        {
          "indexed": false,
          "internalType": "uint256",
          "name": "timestamp",
          "type": "uint256"
        }
      ],
      "name": "MessageSent",
      "type": "event"
    },
    {
      "inputs": [],
      "name": "MESSAGE_FEE",
      "outputs": [
        {
          "internalType": "uint256",
          "name": "",
          "type": "uint256"
        }
      ],
      "stateMutability": "view",
      "type": "function"
    },
    {
      "inputs": [
        {
          "internalType": "uint256",
          "name": "index",
          "type": "uint256"
        }
      ],
      "name": "getMessage",
      "outputs": [
        {
          "internalType": "address",
          "name": "",
          "type": "address"
        },
        {
          "internalType": "string",
          "name": "",
          "type": "string"
        },
        {
          "internalType": "uint256",
          "name": "",
          "type": "uint256"
        }
      ],
      "stateMutability": "view",
      "type": "function"
    },
    {
      "inputs": [],
      "name": "getMessagesCount",
      "outputs": [
        {
          "internalType": "uint256",
          "name": "",
          "type": "uint256"
        }
      ],
      "stateMutability": "view",
      "type": "function"
    },
    {
      "inputs": [
        {
          "internalType": "uint256",
          "name": "",
          "type": "uint256"
        }
      ],
      "name": "messages",
      "outputs": [
        {
          "internalType": "address",
          "name": "sender",
          "type": "address"
        },
        {
          "internalType": "string",
          "name": "message",
          "type": "string"
        },
        {
          "internalType": "uint256",
          "name": "timestamp",
          "type": "uint256"
        }
      ],
      "stateMutability": "view",
      "type": "function"
    },
    {
      "inputs": [
        {
          "internalType": "string",
          "name": "_message",
          "type": "string"
        }
      ],
      "name": "sendMessage",
      "outputs": [],
      "stateMutability": "payable",
      "type": "function"
    }
  ],
  "bytecode": "0x608060405234801561001057600080fd5b50610c9f806100206000396000f3fe60806040526004361061004a5760003560e01c80630d80fefd1461004f5780633d0c46d01461008e578063469c8110146100b957806386f79edb146100d5578063f28355c814610114575b600080fd5b34801561005b57600080fd5b5061007660048036038101906100719190610570565b61013f565b6040516100859392919061067d565b60405180910390f35b34801561009a57600080fd5b506100a3610221565b6040516100b091906106bb565b60405180910390f35b6100d360048036038101906100ce919061080b565b61022d565b005b3480156100e157600080fd5b506100fc60048036038101906100f79190610570565b61038f565b60405161010b9392919061067d565b60405180910390f35b34801561012057600080fd5b5061012961051a565b60405161013691906106bb565b60405180910390f35b6000818154811061014f57600080fd5b90600052602060002090600302016000915090508060000160009054906101000a900473ffffffffffffffffffffffffffffffffffffffff169080600101805461019890610883565b80601f01602080910402602001604051908101604052809291908181526020018280546101c490610883565b80156102115780601f106101e657610100808354040283529160200191610211565b820191906000526020600020905b8154815290600101906020018083116101f457829003601f168201915b5050505050908060020154905083565b60008080549050905090565b6702c68af0bb1400003414610277576040517f08c379a000000000000000000000000000000000000000000000000000000000815260040161026e90610900565b60405180910390fd5b600060405180606001604052803373ffffffffffffffffffffffffffffffffffffffff16815260200183815260200142815250908060018154018082558091505060019003906000526020600020906003020160009091909190915060008201518160000160006101000a81548173ffffffffffffffffffffffffffffffffffffffff021916908373ffffffffffffffffffffffffffffffffffffffff160217905550602082015181600101908161032f9190610acc565b506040820151816002015550503373ffffffffffffffffffffffffffffffffffffffff167f4816bdd3b9d39acdd4da0ae7412d5523081e916c6a56e481063e475b86ef7c5b8242604051610384929190610b9e565b60405180910390a250565b600060606000808054905084106103db576040517f08c379a00000000000000000000000000000000000000000000000000000000081526004016103d290610c1a565b60405180910390fd5b60008085815481106103f0576103ef610c3a565b5b90600052602060002090600302016040518060600160405290816000820160009054906101000a900473ffffffffffffffffffffffffffffffffffffffff1673ffffffffffffffffffffffffffffffffffffffff1673ffffffffffffffffffffffffffffffffffffffff16815260200160018201805461046f90610883565b80601f016020809104026020016040519081016040528092919081815260200182805461049b90610883565b80156104e85780601f106104bd576101008083540402835291602001916104e8565b820191906000526020600020905b8154815290600101906020018083116104cb57829003601f168201915b505050505081526020016002820154815250509050806000015181602001518260400151935093509350509193909250565b6702c68af0bb14000081565b6000604051905090565b600080fd5b600080fd5b6000819050919050565b61054d8161053a565b811461055857600080fd5b50565b60008135905061056a81610544565b92915050565b60006020828403121561058657610585610530565b5b60006105948482850161055b565b91505092915050565b600073ffffffffffffffffffffffffffffffffffffffff82169050919050565b60006105c88261059d565b9050919050565b6105d8816105bd565b82525050565b600081519050919050565b600082825260208201905092915050565b60005b838110156106185780820151818401526020810190506105fd565b60008484015250505050565b6000601f19601f8301169050919050565b6000610640826105de565b61064a81856105e9565b935061065a8185602086016105fa565b61066381610624565b840191505092915050565b6106778161053a565b82525050565b600060608201905061069260008301866105cf565b81810360208301526106a48185610635565b90506106b3604083018461066e565b949350505050565b60006020820190506106d0600083018461066e565b92915050565b600080fd5b600080fd5b7f4e487b7100000000000000000000000000000000000000000000000000000000600052604160045260246000fd5b61071882610624565b810181811067ffffffffffffffff82111715610737576107366106e0565b5b80604052505050565b600061074a610526565b9050610756828261070f565b919050565b600067ffffffffffffffff821115610776576107756106e0565b5b61077f82610624565b9050602081019050919050565b82818337600083830152505050565b60006107ae6107a98461075b565b610740565b9050828152602081018484840111156107ca576107c96106db565b5b6107d584828561078c565b509392505050565b600082601f8301126107f2576107f16106d6565b5b813561080284826020860161079b565b91505092915050565b60006020828403121561082157610820610530565b5b600082013567ffffffffffffffff81111561083f5761083e610535565b5b61084b848285016107dd565b91505092915050565b7f4e487b7100000000000000000000000000000000000000000000000000000000600052602260045260246000fd5b6000600282049050600182168061089b57607f821691505b6020821081036108ae576108ad610854565b5b50919050565b7f4d7573742073656e642065786163746c7920302e322053484d00000000000000600082015250565b60006108ea6019836105e9565b91506108f5826108b4565b602082019050919050565b60006020820190508181036000830152610919816108dd565b9050919050565b60008190508160005260206000209050919050565b60006020601f8301049050919050565b600082821b905092915050565b6000600883026109827fffffffffffffffffffffffffffffffffffffffffffffffffffffffffffffffff82610945565b61098c8683610945565b95508019841693508086168417925050509392505050565b6000819050919050565b60006109c96109c46109bf8461053a565b6109a4565b61053a565b9050919050565b6000819050919050565b6109e3836109ae565b6109f76109ef826109d0565b848454610952565b825550505050565b600090565b610a0c6109ff565b610a178184846109da565b505050565b5b81811015610a3b57610a30600082610a04565b600181019050610a1d565b5050565b601f821115610a8057610a5181610920565b610a5a84610935565b81016020851015610a69578190505b610a7d610a7585610935565b830182610a1c565b50505b505050565b600082821c905092915050565b6000610aa360001984600802610a85565b1980831691505092915050565b6000610abc8383610a92565b9150826002028217905092915050565b610ad5826105de565b67ffffffffffffffff811115610aee57610aed6106e0565b5b610af88254610883565b610b03828285610a3f565b600060209050601f831160018114610b365760008415610b24578287015190505b610b2e8582610ab0565b865550610b96565b601f198416610b4486610920565b60005b82811015610b6c57848901518255600182019150602085019450602081019050610b47565b86831015610b895784890151610b85601f891682610a92565b8355505b6001600288020188555050505b505050505050565b60006040820190508181036000830152610bb88185610635565b9050610bc7602083018461066e565b9392505050565b7f496e76616c696420696e64657800000000000000000000000000000000000000600082015250565b6000610c04600d836105e9565b9150610c0f82610bce565b602082019050919050565b60006020820190508181036000830152610c3381610bf7565b9050919050565b7f4e487b7100000000000000000000000000000000000000000000000000000000600052603260045260246000fdfea2646970667358221220706068294e8573765eb519dc13b47f7685866e7ac849f79e744712b7a2b80b0d64736f6c63430008140033",
  "linkReferences": {},
  "deployedLinkReferences": {}
}